:100000000C9434000C9449000C9449000C94490061
:100010000C9449000C9449000C9449000C9449003C
:100020000C9449000C9449000C9449000C9449002C
:100030000C9449000C94A6000C9449000C944900BF
:100040000C9449000C9449000C9449000C9449000C
:100050000C9449000C9449000C9449000C944900FC
:100060000C9449000C94490011241FBECFEFD8E036
:10007000DEBFCDBF11E0A0E0B1E0EEECF1E002C0E8
:1000800005900D92A230B107D9F70E946F000C9431
:10009000E5000C940000FC01408121E030E002C04A
:1000A000220F331F6A95E2F7242B20830895FC0169
:1000B000408121E030E002C0220F331F6A95E2F751
:1000C000242B20830895FC01408121E030E002C010
:1000D000220F331F6A95E2F724272083089565E0F5
:1000E00084E290E00E944B0065E085E290E00E948F
:1000F000570064E084E290E00E944B0064E085E2F7
:1001000090E00E94570063E084E290E00E944B0080
:1001100063E085E290E00E94570062E084E290E0B4
:100120000E944B0062E085E290E00E945700E1E807
:10013000F0E080818B7F8083808183608083EFE625
:10014000F0E08081816080837894FFCF1F920F92CE
:100150000FB60F9211242F933F934F935F936F939A
:100160007F938F939F93AF93BF93EF93FF93809170
:10017000000190910101019690930101809300018B
:10018000609100017091010185E290E00E9463009E
:100190008091000190910101079731F482E090E095
:1001A0009093010180930001FF91EF91BF91AF9176
:1001B0009F918F917F916F915F914F913F912F917F
:0E01C0000F900FBE0F901F901895F894FFCF70
:0201CE0002002D
:00000001FF
