:100000000C9434000C943E000C943E000C943E0082
:100010000C943E000C943E000C943E000C943E0068
:100020000C943E000C943E000C943E000C943E0058
:100030000C943E000C943E000C943E000C943E0048
:100040000C943E000C943E000C943E000C943E0038
:100050000C943E000C943E000C943E000C943E0028
:100060000C943E000C943E0011241FBECFEFD8E04C
:10007000DEBFCDBF0E9462000C942F010C940000E3
:100080002F923F92F10182819381019789F44D99DA
:1000900016C08081918101979C0122F42227332789
:1000A000281B390BF101318320831382128207C090
:1000B0004D9B05C081E090E0F101938382833F90E6
:1000C0002F900895CF93DF9300D000D0CDB7DEB747
:1000D00084B1806284B984B1806184B984B188605C
:1000E00084B984B1846084B984B1826084B98AB1EE
:1000F0008F7D8AB985B18F7D85B985B18F7E85B9B0
:1001000085B1877F85B985B18B7F85B985B18D7FB5
:1001100085B98BB180628BB91A82198281E090E037
:100120009C838B83CE0101961C010E944000898133
:100130009A810197B9F70E94400085B110E28127AA
:1001400085B99FEF24E38CE0915020408040E1F797
:1001500000C000000E94400085B1182715B985B184
:1001600010E1812785B99FEF24E38CE09150204076
:100170008040E1F700C000000E94400085B1812767
:1001800085B985B108E0802785B99FEF24E38CE02D
:10019000915020408040E1F700C000000E944000E4
:1001A00085B1802785B985B16894FF24F2F88F2541
:1001B00085B99FEF24E38CE0915020408040E1F727
:1001C00000C000000E94400085B18F2585B985B12F
:1001D0006894EE24E1F88E2585B99FEF24E38CE046
:1001E000915020408040E1F700C000000E94400094
:1001F00085B1E826E5B885B18F2585B99FEF24E361
:100200008CE0915020408040E1F700C000000E9447
:10021000400085B1F826F5B885B1802785B99FEFF4
:1002200024E38CE0915020408040E1F700C00000C2
:100230000E94400085B1082705B985B1812785B99D
:100240009FEF24E38CE0915020408040E1F700C014
:1002500000000E94400085B1182715B963CFF894BB
:02026000FFCFCE
:00000001FF
