:100000000C9434000C943E000C943E000C943E0082
:100010000C943E000C943E000C943E000C943E0068
:100020000C943E000C943E000C943E000C943E0058
:100030000C943E000C943E000C943E000C943E0048
:100040000C943E000C943E000C943E000C943E0038
:100050000C943E000C943E000C943E000C943E0028
:100060000C943E000C943E0011241FBECFEFD8E04C
:10007000DEBFCDBF0E9440000C9420010C94000014
:1000800084B1806284B985B18F7D85B995B180E2F4
:10009000982795B92FEF3EE994E2215030409040E7
:1000A000E1F700C0000095B1982795B92FEF34E330
:1000B0009CE0215030409040E1F700C0000095B135
:1000C000982795B92FEF34E39CE0215030409040C1
:1000D000E1F700C0000095B1982795B92FEF34E300
:1000E0009CE0215030409040E1F700C0000095B105
:1000F000982795B92FEF34E39CE021503040904091
:10010000E1F700C0000095B1982795B92FEF3EE9BF
:1001100094E2215030409040E1F700C0000095B1DA
:10012000982795B92FEF34E39CE021503040904060
:10013000E1F700C0000095B1982795B92FEF3EE98F
:1001400094E2215030409040E1F700C0000095B1AA
:10015000982795B92FEF34E39CE021503040904030
:10016000E1F700C0000095B1982795B92FEF34E36F
:100170009CE0215030409040E1F700C0000095B174
:10018000982795B92FEF34E39CE021503040904000
:10019000E1F700C0000095B1982795B92FEF34E33F
:1001A0009CE0215030409040E1F700C0000095B144
:1001B000982795B92FEF3EE994E2215030409040C6
:1001C000E1F700C0000095B1982795B92FEF34E30F
:1001D0009CE0215030409040E1F700C0000095B114
:1001E000982795B92FEF3EE994E221503040904096
:1001F000E1F700C0000095B1982795B92FEF34E3DF
:100200009CE0215030409040E1F700C0000095B1E3
:10021000982795B92FEF3EE994E221503040904065
:10022000E1F700C0000095B1892785B92FEF32E7CB
:1002300085E5215030408040E1F700C0000026CF26
:04024000F894FFCF60
:00000001FF
