S00E000030362D6C63642E7372656350
S11300000C9434000C9451000C9451000C94510045
S11300100C9451000C9451000C9451000C94510018
S11300200C9451000C945B010C9451000C945100FD
S11300300C9451000C9451000C9451000C945100F8
S11300400C9451000C9451000C9451000C945100E8
S11300500C9451000C9451000C9451000C945100D8
S11300600C9451000C94510011241FBECFEFD8E022
S1130070DEBFCDBF11E0A0E0B1E0E4E1F4E002C0F6
S113008005900D92A631B107D9F721E0A6E1B1E0C0
S113009001C01D92A931B207E1F70E94FA000C9445
S11300A008020C940000299A85E08A95F1F7000073
S11300B029980895CF93C82F662311F0289A01C078
S11300C02898549A559A569A579A5F985E985D98CC
S11300D05C98CC230CF45F9AC6FD5E9AC5FD5D9ACC
S11300E0C4FD5C9A0E9453005F985E985D985C988A
S11300F0C3FD5F9AC2FD5E9AC1FD5D9AC0FD5C9A24
S11301000E9453005C9A5D9A5E9A5F9A87EB9BE02B
S11301100197F1F700C00000CF91089560E00E94BC
S11301205A00089561E00E945A000895611104C0C4
S113013080580E948E00089580540E948E00089575
S113014081E00E948E00089561E00E945A000895A3
S1130150CF93DF93EC012196FC018081882329F061
S11301600E94A40089918111FBCFDF91CF91089562
S1130170CF93C82F209A559A219A549A559A569AF1
S1130180579A8FEF99EF0197F1F700C000005D9A3D
S11301905C9A0E9453008FE19EE40197F1F700C03E
S11301A000000E9453008FEF90E00197F1F700C028
S11301B000000E9453008FEF90E00197F1F700C018
S11301C000005C980E9453008FEF90E00197F1F7D4
S11301D000C0000088E20E948E0088E00E948E0029
S11301E00E94A00086E00E948E008C2F0E948E0048
S11301F0CF910895CF93DF93CDB7DEB728970FB68D
S1130200F894DEBF0FBECDBF88E0E0E0F1E0DE0190
S1130210119601900D928A95E1F78CE00E94B80046
S113022060E081E00E94960088E091E00E94A800CE
S113023060E08BE00E94960080E191E00E94A800BB
S113024061E081E00E94960082E191E00E94A800B2
S113025061E08BE00E94960084E191E00E94A80096
S113026060E080E00E94960080E40E948E008E018F
S11302700F5F1F4F7E0189E0E80EF11CF8018191A8
S11302808F010E9492000E151F05C1F780E80E949D
S11302908E0080E00E94A40085B58D7F85BDE1EBD2
S11302A0F0E0808185608083E0E7F0E08081816018
S11302B080837894FFCF1F920F920FB60F92112470
S11302C02F933F934F935F936F937F938F939F935A
S11302D0AF93BF93EF93FF93CF93DF9300D0CDB74A
S11302E0DEB780E290E29A838983809118018F5F60
S11302F08C3318F48093180141C010921801809136
S113030017018F5F8093170160E087E00E949600D9
S1130310809117014AE0BE016F5F7F4F90E00E9419
S1130320D301CE0101960E94A80080911701893063
S1130330F8F010921701809116018F5F80931601D7
S11303408A3028F060E084E00E94960004C060E0F7
S113035085E00E949600809116014AE0BE016F5F1D
S11303607F4F90E00E94D301CE0101960E94A80025
S1130370809116018B3310F0109216010F900F909C
S1130380DF91CF91FF91EF91BF91AF919F918F91A9
S11303907F916F915F914F913F912F910F900FBE7D
S11303A00F901F901895BB274A3031F4992322F4FB
S11303B0BDE2909581959F4F0C94DF01BB27FB0113
S11303C05527AA27880F991FAA1FA41710F0A41B4A
S11303D083955051B9F7A05DAA3308F0A95DA193A4
S11303E0009779F7B111B1931192CB010C94F801F4
S11303F0DC01FC01672F71917723E1F7329704C088
S11304007C916D9370836291AE17BF07C8F3089512
S1070410F894FFCF8A
S11304141F0000000000001F30303A30302E30003E
S1090424610062006300A8
S9030000FC
