S00E000030322D6C65642E7372656352
S11300000C9434000C943E000C943E000C943E007E
S11300100C943E000C943E000C943E000C943E0064
S11300200C943E000C943E000C943E000C943E0054
S11300300C943E000C943E000C943E000C943E0044
S11300400C943E000C943E000C943E000C943E0034
S11300500C943E000C943E000C943E000C943E0024
S11300600C943E000C943E0011241FBECFEFD8E048
S1130070DEBFCDBF0E9440000C9452000C940000DF
S1130080389A4098259A2D988AB18AB95A9898B185
S113009081E0892788B991E04A99FECF88B1892700
S10B00A088B9FACFF894FFCFF0
S9030000FC
